{
  "contractName": "TodoList",
  "abi": [
    {
      "inputs": [],
      "payable": false,
      "stateMutability": "nonpayable",
      "type": "constructor"
    },
    {
      "constant": true,
      "inputs": [],
      "name": "taskCount",
      "outputs": [
        {
          "internalType": "uint256",
          "name": "",
          "type": "uint256"
        }
      ],
      "payable": false,
      "stateMutability": "view",
      "type": "function"
    },
    {
      "constant": true,
      "inputs": [
        {
          "internalType": "uint256",
          "name": "",
          "type": "uint256"
        }
      ],
      "name": "tasks",
      "outputs": [
        {
          "internalType": "uint256",
          "name": "id",
          "type": "uint256"
        },
        {
          "internalType": "string",
          "name": "content",
          "type": "string"
        },
        {
          "internalType": "bool",
          "name": "completed",
          "type": "bool"
        }
      ],
      "payable": false,
      "stateMutability": "view",
      "type": "function"
    },
    {
      "constant": false,
      "inputs": [
        {
          "internalType": "string",
          "name": "_content",
          "type": "string"
        }
      ],
      "name": "addTask",
      "outputs": [],
      "payable": false,
      "stateMutability": "nonpayable",
      "type": "function"
    },
    {
      "constant": true,
      "inputs": [
        {
          "internalType": "uint256",
          "name": "_index",
          "type": "uint256"
        }
      ],
      "name": "getTaskName",
      "outputs": [
        {
          "internalType": "string",
          "name": "",
          "type": "string"
        }
      ],
      "payable": false,
      "stateMutability": "view",
      "type": "function"
    },
    {
      "constant": false,
      "inputs": [
        {
          "internalType": "uint256",
          "name": "_index",
          "type": "uint256"
        }
      ],
      "name": "completeTask",
      "outputs": [],
      "payable": false,
      "stateMutability": "nonpayable",
      "type": "function"
    },
    {
      "constant": false,
      "inputs": [
        {
          "internalType": "uint256",
          "name": "_index",
          "type": "uint256"
        }
      ],
      "name": "removeTask",
      "outputs": [],
      "payable": false,
      "stateMutability": "nonpayable",
      "type": "function"
    }
  ],
  "bytecode": "0x60806040526000805534801561001457600080fd5b506100596040518060400160405280600e81526020017f4c6561726e20536f6c696469747900000000000000000000000000000000000081525061005e60201b60201c565b610195565b604051806060016040528060005481526020018281526020016000151581525060016000805481526020019081526020016000206000820151816000015560208201518160010190805190602001906100b89291906100f0565b5060408201518160020160006101000a81548160ff021916908315150217905550905050600080815480929190600101919050555050565b828054600181600116156101000203166002900490600052602060002090601f016020900481019282601f1061013157805160ff191683800117855561015f565b8280016001018555821561015f579182015b8281111561015e578251825591602001919060010190610143565b5b50905061016c9190610170565b5090565b61019291905b8082111561018e576000816000905550600101610176565b5090565b90565b6106c5806101a46000396000f3fe608060405234801561001057600080fd5b50600436106100625760003560e01c806356755b1314610067578063672385621461010e5780638d977672146101c9578063b6cb58a514610282578063c3084117146102a0578063e1e29558146102ce575b600080fd5b6100936004803603602081101561007d57600080fd5b81019080803590602001909291905050506102fc565b6040518080602001828103825283818151815260200191508051906020019080838360005b838110156100d35780820151818401526020810190506100b8565b50505050905090810190601f1680156101005780820380516001836020036101000a031916815260200191505b509250505060405180910390f35b6101c76004803603602081101561012457600080fd5b810190808035906020019064010000000081111561014157600080fd5b82018360208201111561015357600080fd5b8035906020019184600183028401116401000000008311171561017557600080fd5b91908080601f016020809104026020016040519081016040528093929190818152602001838380828437600081840152601f19601f8201169050808301925050505050505091929192905050506103b4565b005b6101f5600480360360208110156101df57600080fd5b8101908080359060200190929190505050610446565b604051808481526020018060200183151515158152602001828103825284818151815260200191508051906020019080838360005b8381101561024557808201518184015260208101905061022a565b50505050905090810190601f1680156102725780820380516001836020036101000a031916815260200191505b5094505050505060405180910390f35b61028a610515565b6040518082815260200191505060405180910390f35b6102cc600480360360208110156102b657600080fd5b810190808035906020019092919050505061051b565b005b6102fa600480360360208110156102e457600080fd5b8101908080359060200190929190505050610572565b005b6060600160008381526020019081526020016000206001018054600181600116156101000203166002900480601f0160208091040260200160405190810160405280929190818152602001828054600181600116156101000203166002900480156103a85780601f1061037d576101008083540402835291602001916103a8565b820191906000526020600020905b81548152906001019060200180831161038b57829003601f168201915b50505050509050919050565b6040518060600160405280600054815260200182815260200160001515815250600160008054815260200190815260200160002060008201518160000155602082015181600101908051906020019061040e9291906105a3565b5060408201518160020160006101000a81548160ff021916908315150217905550905050600080815480929190600101919050555050565b6001602052806000526040600020600091509050806000015490806001018054600181600116156101000203166002900480601f0160208091040260200160405190810160405280929190818152602001828054600181600116156101000203166002900480156104f85780601f106104cd576101008083540402835291602001916104f8565b820191906000526020600020905b8154815290600101906020018083116104db57829003601f168201915b5050505050908060020160009054906101000a900460ff16905083565b60005481565b600160008281526020019081526020016000206000808201600090556001820160006105479190610623565b6002820160006101000a81549060ff0219169055505060008081548092919060019003919050555050565b600180600083815260200190815260200160002060020160006101000a81548160ff02191690831515021790555050565b828054600181600116156101000203166002900490600052602060002090601f016020900481019282601f106105e457805160ff1916838001178555610612565b82800160010185558215610612579182015b828111156106115782518255916020019190600101906105f6565b5b50905061061f919061066b565b5090565b50805460018160011615610100020316600290046000825580601f106106495750610668565b601f016020900490600052602060002090810190610667919061066b565b5b50565b61068d91905b80821115610689576000816000905550600101610671565b5090565b9056fea265627a7a72315820fe20ed0da12c0c7601cb4572257e0c987cc05140dc7d8aef5611ac6c7512cc8b64736f6c63430005100032",
  "source": "// SPDX-License-Identifier: MIT\npragma solidity >=0.4.22 <0.9.0;\n\ncontract TodoList {\n\n    uint public taskCount = 0;\n    mapping(uint => Task) public tasks;\n\n    struct Task {\n        uint id;\n        string content;\n        bool completed;\n    }\n\n    constructor() public {\n        addTask(\"Learn Solidity\");\n    }\n\n    function addTask(string memory _content) public {\n        tasks[taskCount] = Task(taskCount, _content, false);\n        taskCount++;\n    }\n\n    function getTaskName(uint _index) public view returns(string memory) {\n        return tasks[_index].content;\n    }\n\n    function completeTask(uint _index) public {\n        tasks[_index].completed = true;\n    }\n\n    function removeTask(uint _index) public {\n        delete tasks[_index];\n        taskCount--;\n    }\n\n}\n",
  "sourcePath": "/home/thomas/workspace/nuxt-dapp-boilerplate/contracts/TodoList.sol",
  "compiler": {
    "name": "solc",
    "version": "0.5.16+commit.9c3226ce.Emscripten.clang"
  },
  "schemaVersion": "3.4.4",
  "updatedAt": "2021-12-21T18:44:50.311Z",
  "networkType": "ethereum",
  "devdoc": {
    "methods": {}
  },
  "userdoc": {
    "methods": {}
  }
}